:020000040800F2
:10000000E806002055020008751000086D10000871
:100010007110000845060008851600080000000061
:100020000000000000000000000000007D1000083B
:10003000490600080000000079100008811000083F
:100040006F0200086F0200086F0200086F020008CC
:100050006F0200086F0200086F0200086F020008BC
:100060006F0200086F0200086F0200086F020008AC
:100070006F0200086F0200086F0200086F0200089C
:100080006F0200086F0200086F0200086F0200088C
:100090006F0200086F0200086F0200084D0600089A
:1000A0006F020008891000086F0200086F02000844
:1000B00059130008F91300086F0200086F020008C6
:1000C0006F0200086F0200086F0200086F0200084C
:1000D0006F0200086F0200086F0200086F0200083C
:1000E0006F0200086F0200086F0200086F0200082C
:1000F0006F0200086F0200086F0200086F0200081C
:100100006F0200086F0200086F0200086F0200080B
:100110006F0200086F0200086F0200086F020008FB
:100120006F0200086F0200086F0200086F020008EB
:100130006F02000800000000000000006F020008CD
:100140006F0200086F0200086F0200086F020008CB
:100150006F0200086F0200086F0200086F020008BB
:100160006F0200086F0200086F0200086F020008AB
:100170006F0200086F02000800000000000000008D
:100180006F02000800F002F800F055F814A696E897
:10019000000CB244B344DA4501D100F04CF8BAE89F
:1001A0000F000FA696E83000A5EB040504EB060748
:1001B000AAEB0704A7F101074FEA15154FEA34141B
:1001C000A4F10104AC4201D300F035F813F0010FA3
:1001D00018BFFB1A43F0010300F001F8DBE71847F2
:1001E000AC180000CC180000103A24BF78C878C1C1
:1001F000FAD8520724BF30C830C144BF04680C602D
:1002000070470000704700000023002400250026EE
:10021000103A28BF78C1FBD8520728BF30C148BF69
:100220000B607047642900F0F580002070471FB50F
:100230001FBD10B510BD00F0CAF91146FFF7F7FF5A
:1002400001F022FA00F0E8F903B4FFF7F2FF03BC73
:1002500000F0F0F90948804709480047FEE7FEE74B
:10026000FEE7FEE7FEE7FEE7FEE7FEE7FEE7FEE766
:1002700004480549054A064B7047000085100008F0
:1002800085010008E8000020E8060020E8020020C0
:10029000E802002053EA020C00F069802DE9F04BDF
:1002A0004FF00006002B1FBFB3FA83F503FA05F4E5
:1002B00024FA05F65E4012BF1643B2FA82F502FA3E
:1002C00005F4C5F120051EBF22FA05FC44EA0C0422
:1002D000203556EA044C4FEA144418BF641C4FF012
:1002E00000084FF00009904271EB030C39D300294C
:1002F00019BFB1FA81F701FA07F6B0FA80F700FAF0
:1003000007F6C7F120071EBF20FA07FC46EA0C06D5
:100310002037B6FBF4FCA7EB0507103F07F01F0BD7
:10032000CBF120062CFA06F60CFA0BFB44BFB346C1
:100330000026202FA4BF5E464FF0000B5BEA060CA0
:1003400008BF4FF0010B19EB0B0948EB0608ABFB9C
:10035000027C06FB02CC0BFB03CCC01B71EB0C0137
:10036000C1E70B46024641464846BDE8F08B13B54F
:10037000084318BF4FF0FF300146AFF30080BDE8DF
:100380001C4070470FB41CB5074B06AA7B44694656
:100390000090059800F003F90020694600F012F97A
:1003A0001CBC5DF814FB0000350200002DE9F04193
:1003B0000E460446002020622046E168884730B39C
:1003C000252805D0D4E901219047206A401CF2E796
:1003D000E168204600278847050018D0A5F14100B4
:1003E000192802D820354FF40067324629462046A6
:1003F0002760FFF717FF40B1012804D0F61D26F053
:1004000007060836D8E7361DD6E72846DAE7206A19
:10041000BDE8F0812DE9F0410646002410687529F9
:10042000314616A510D0AFF30080002802DA404212
:1004300013A507E031688A0701D512A502E0490734
:1004400004D511A5012401E0AFF3008000210A22A8
:1004500006F1240709E0B0FBF2FCB0FBF2F302FB6B
:100460001C00303078541846491C0028F3D123462C
:100470002A463046BDE8F04100F032B800000000E6
:100480002D0000002B000000200000004FF00002B3
:1004900000B5134694469646203922BFA0E80C507A
:1004A000A0E80C50B1F12001BFF4F7AF090728BF55
:1004B000A0E80C5048BF0CC05DF804EB890028BFD1
:1004C00040F8042B08BF704748BF20F8022B11F0FA
:1004D000804F18BF00F8012B704770477047704776
:1004E0002DE9F0470D4699469246044600F124084E
:1004F0000168880604D5E06921F01001216000E060
:100500000120A84201DD471B00E00027A1697A19FC
:1005100002EB0900081AA0612078C00602D4204628
:10052000AFF30080002608E0D4E901211AF80600A4
:100530009047206A401C761C20624E45F4DB2078F0
:10054000C0060AD52046AFF3008006E0D4E90121B9
:1005500030209047206A401C2062381EA7F1010716
:10056000F4DC07E0D4E9012118F805009047206A7F
:10057000401C2062281EA5F10105F3DC2046AFF3E4
:1005800000802078000602D50220BDE8F087012017
:10059000FBE7000001694A1C02610878704700B55A
:1005A0008FB0CDE901310021059105497944CDE9AC
:1005B000031011466846FFF7F9FE0FB000BD0000BA
:1005C000E5FFFFFF0A6802F8010B0A6070477546F5
:1005D00000F02CF8AE4605006946534620F00700AF
:1005E000854618B020B5FFF743FEBDE820404FF028
:1005F00000064FF000074FF000084FF0000BAC462C
:10060000ACE8C009ACE8C009ACE8C009ACE8C00976
:1006100021F007018D46704710B50446AFF3008006
:100620002046BDE81040FFF70FBE000000487047AD
:100630001000002001491820ABBEFEE72600020092
:1006400070470000FEE7000070470000B0B543F6B9
:100650001445C4F201052868400658BFB0BD40F2F9
:100660000040C4F20000016841F2000421F00101E1
:10067000016040F27000C2F200000021C4F20204E6
:100680004182817320468021012200F0F9F8204642
:100690004FF48071012200F0F3F820464FF400710E
:1006A000012200F0EDF820464FF48061012200F0B5
:1006B000E7F8286840F040002860B0BD2DE9F04F11
:1006C00083B00F68002F00F0C98000F13E4642F26F
:1006D000000C00F1200206F1FF76C4F2020C009239
:1006E0004FEAB6250922604508BF0822082D4FF0C1
:1006F00000054FF000084FF0000938BF4FEAB6225E
:1007000001920AE00F6809F1010937FA09F208F1CC
:10071000020805F1040500F0A180012202FA09FE99
:1007200017EA0E0AEED0D1F804C003220CF003073A
:100730007E1E02FA08F4012E6FEA040B12D88468B8
:10074000CE6804EA0B0406FA08F634438460446871
:1007500024EA0E06CCF3001404FA09F4264346609A
:1007600004E000BF032F01D103271EE0C6688C6898
:1007700006EA0B0604FA08F42643022FC66014D1D9
:100780006FF00302009E02EA590756F807C005F011
:100790001C040F220B69A2402CEA0202A3401A4358
:1007A000F251D1F804C00CF00307026807FA08F30D
:1007B00002EA0B021A431CF4403F0260A2D000225E
:1007C00043F644030292C4F202031A6843F600445B
:1007D00042F480421A601A68C4F2010402F48042B2
:1007E0000292029A29F003024FF6084C2244CFF6F7
:1007F000FF7C52F80C3005F00C070F26BE40B343C7
:10080000019E06FA07F73B4342F80C30A2684B689A
:1008100042EA0A0743F60C4CDE0258BF22EA0A07F6
:10082000A760C4F2010CDCF800209E0242EA0A072D
:1008300058BF22EA0A07CCF8007062689E0342EAB9
:100840000A0758BF22EA0A0767602268DB0342EA08
:100850000A0758BF22EA0A07276053E703B0BDE83A
:10086000F08F00000069084018BF012070470000A9
:10087000426902EA0103914341EA03418161704701
:10088000002A08BF090481617047000040F2E000BF
:10089000C2F200000068704740F2040040F2E0013C
:1008A000C2F20000C2F2000100780A681044086039
:1008B0007047000080B543F60040C4F202000168B2
:1008C00041F400710160016841F4806101600168D8
:1008D00041F480710160032000F074F80F2000F0F3
:1008E00005F800F027F8002080BD000070B540F248
:1008F0000406C2F2000640F20C013278C2F2000196
:100900004FF47A730968B3FBF2F20446B1FBF2F1DB
:10091000084600F02BFB0F2C4FF0010508D838B922
:100920004FF0FF3021460022002500F01FF87460D0
:10093000284670BD82B0002043F640010190C4F209
:1009400002014A6842F480424A604A6802F48042E6
:100950000192019A0090086840F080500860086891
:1009600000F080500090009802B0704710B54EF62D
:100970000C5CCEF2000CDCF80030C3F3022E8EF0DB
:100980000704042C28BF0424BEF103034FF0FF3EEC
:100990000EFA04F438BF0023A14399400EFA03F382
:1009A0009A43114300F00F0200F160430901043A39
:1009B00003F564436244002848BF02F10C03197038
:1009C00010BD00004EF60C51CEF200010A684FF641
:1009D000FF031A4060F30A2242F0806040F0FD708D
:1009E00008607047002804BF012070472DE9F041DE
:1009F00043F60808C4F202080446D8F8F8030D4686
:100A000000F00F00884208D288F8F853D8F8F803AD
:100A100000F00F00A84240F0AF802068810717D592
:100A2000410705D5D8F8001041F4E051C8F800108E
:100A3000010705D5D8F8001041F46041C8F800104E
:100A4000D8F80010A26821F0F0011143C8F8001096
:100A5000C00721D1D8F8F80300F00F00A84208D948
:100A600088F8F853D8F8F80300F00F00A84240F0D7
:100A70008380206841071DD4000725D4D8F80000E2
:100A800000F00C0008282ED004284FD147F6400073
:100A9000C0F27D104EE000BF606858F8081C0228C4
:100AA00062D0012866D189035CBF0120BDE8F081D6
:100AB00066E000BFD8F80010E26821F4E05111436D
:100AC000C8F800100007D9D5D8F80000216920F433
:100AD000604040EAC100C8F80000D8F8000000F00B
:100AE0000C000828D0D158F8040C58F8041C58F809
:100AF000043C490247F64001C0F27D1100F03F027C
:100B0000C3F388105CBF42F20041C0F2F401A1FBC4
:100B100000010023FFF7BEFB58F8041C0222C1F3BA
:100B2000014102EB4101B0FBF1F003E042F2004071
:100B3000C0F2F400D8F8001041F67222C1F303119C
:100B4000C0F60002515C40F20C0220FA01F140F2C2
:100B50000800C2F200000068C2F200021160FFF754
:100B6000C5FE0020BDE8F08189015CBF0120BDE821
:100B7000F08105E0890703D40120BDE8F08100BFC2
:100B8000D8F8001021F003010843C8F80000FFF76F
:100B90007DFE064641F28837D8F80000616800F013
:100BA0000C00B0EB810F3FF455AFFFF76FFE801BD9
:100BB000B842F1D90320BDE8F081000040F20C00FA
:100BC00043F60801C2F20000C4F20201006809689D
:100BD00041F68222C1F38221C0F60002515CC84076
:100BE0007047000040F20C0043F60801C2F200001A
:100BF000C4F202010068096841F68222C1F3423161
:100C0000C0F60002515CC84070470000002804BFD5
:100C1000012070472DE9F04182B00446007843F688
:100C20000006C007C4F2020635D0B06800F00C0020
:100C3000042809D1306880032DD5606858BB012095
:100C400002B0BDE8F08100BFB06800F00C000828D9
:100C500002D170684002EDD46068B0706568FFF73B
:100C600015FE002D054613D03068800313D4FFF71E
:100C70000DFE401B6428F7D9032002B0BDE8F081C7
:100C8000FFF704FE401B64284FF0030000F22081B0
:100C900030688003F4D4207880071BD5B06810F04A
:100CA0000C0F09D0B06800F00C00082840F09880C4
:100CB0007068400200F194803068800703D5E068D6
:100CC000012840F0D5803068216920F0F80040EA22
:100CD000C1003060207800073AD42078400751D412
:100CE000A56985B3B06800F00C00082840F0DC80EE
:100CF000012D00F0BD807068E16900F480028A4235
:100D000040F0B680216A00F03F028A4240F0B08095
:100D100047F6C071626A0140B1EB821F40F0A880C3
:100D2000A16A4FF6FF73C903994300F44032A1F55D
:100D300080318A4240F09C80E16A00F07060B0EB44
:100D4000016F40F09580002002B0BDE8F08100BF47
:100D50006069002800F090800020C4F24720012143
:100D6000C0F8801EFFF792FD054600BF706F800738
:100D7000B3D4FFF78BFD401B0228F7D9032002B044
:100D8000BDE8F081306C5FEAC0080AD40020019011
:100D9000306C40F080503064306C00F08050019036
:100DA000019847F20007C4F20007386840F48070E9
:100DB00038603868C0052FD4386840F480703860D7
:100DC000FFF764FD054600BF3868C00524D4FFF76F
:100DD0005DFD401B0228F7D9032002B0BDE8F08179
:100DE000E068002840F20000C4F2472000F0808054
:100DF00001210160FFF74AFD054600BF306880070A
:100E00003FF561AFFFF742FD401B0228F6D90320F2
:100E100002B0BDE8F08100BFA06886F87000A56848
:100E2000FFF734FD002D054641F2883713D000BF8F
:100E3000306F800712D4FFF729FD401BB842F7D965
:100E4000032002B0BDE8F081FFF720FD401BB8424F
:100E50004FF003003CD8306F8007F5D4B8F1000F95
:100E60003FF53EAF306C20F08050306438E700BF73
:100E7000012002B0BDE8F0810020C4F2472000212B
:100E8000C0F8801EFFF702FD054600BF706F8007A7
:100E90007FF523AFFFF7FAFC401B0228F6D90320A9
:100EA00002B0BDE8F08100BF0027C4F24727002050
:100EB0003866FFF7EBFC022D05460DD13068800146
:100EC00028D5FFF7E3FC401B64284FF00300F5D959
:100ED00002B0BDE8F08100BF306880017FF533AF1C
:100EE000FFF7D4FC401B64284FF00300F4D9EFE770
:100EF00000210160FFF7CAFC054600BF306880078B
:100F00007FF5E8AEFFF7C2FC401B02284FF003005C
:100F1000F4D9DDE7706848F20001CFF2BC0104F1BA
:100F20001C0500EA010C2ECDE46A41EA0C01ED0338
:100F30004FF6FF70114325EA000041EA8311A0F546
:100F4000803041EA04610843706001203866FFF791
:100F50009DFC0446306880013FF5F5AEFFF796FC36
:100F6000001B64284FF00300F4D9B1E7411E0020B4
:100F7000B0EB116F1CBF012070474EF21002CEF291
:100F8000000251604EF62351CEF20001F0230B70A7
:100F90000721906011607047002804BF012070474E
:100FA00010B5044690F8410028B9002084F84000AC
:100FB000204600F021F8242084F841002068C16810
:100FC00021F40051C160204600F0EAFA206801696E
:100FD00021F490410161416921F02A014161C16818
:100FE00041F40051C16000202021606484F8411068
:100FF00084F84210606310BD80B586B044F20041B1
:101000000068C4F20001002288420592CDE9032263
:101010000292019202D006B080BD00BF43F63000BC
:101020000092C4F20200036943F4003303610369D0
:1010300003F400330093009B0092036843F0010324
:101040000360006800F00100009000980C200190FF
:101050000220CDE90202032004900720059001F54B
:10106000DE3001A9FFF72AFB06B080BDFEE70000D5
:10107000FEE70000FEE70000704700007047000038
:10108000FFF70ABC704700002DE9F04F81B0102037
:10109000C4F20100016841F20009C4F2020921F022
:1010A0000101A9F5406A016050462021FFF7DAFBF3
:1010B00040F20004C2F20004207050461021FFF7F5
:1010C000D1FB607050460821FFF7CCFBA9F5806783
:1010D000A07038468021FFF7C5FBE07038464FF41A
:1010E0000051FFF7BFFB40F27004C2F20004A9F503
:1010F0008058E07040464FF40041FFF7B3FBA9F57C
:10110000006B607158464FF48071FFF7ABFBA07124
:1011100038464FF40061FFF7A5FB60705846402148
:10112000FFF7A0FBA07058468021FFF79BFBE07102
:1011300048464FF48041FFF795FB6278A17B20720F
:1011400051EA020702D1012108E000BF002A13463C
:1011500018BF0123012907D132B10221B7FA87F361
:101160005B0983F00103A173E77A022F78D1B2FA09
:1011700082F751EA020508BF01214A1EB2FA82F243
:1011800052091A4018BF02218E1EB6FA86F67F0950
:101190007609374018BF0321CE1EB6FA86F67609C7
:1011A00003EA060315B10AB907B91BB1002B18BF32
:1011B0000021A1732178A278002908BF002A05D058
:1011C000012907D132B1022101E000BF01212170C4
:1011D00015E000BF002A134681F0020718BF012363
:1011E000174308BF0321CA1EB2FA82F252091A40FD
:1011F00018BF0021002FEAD0002A18BF2170617AA1
:10120000E279002908BF002A04D0012906D12AB1B9
:10121000022100E00121617215E000BF002A13469F
:1012200081F0020718BF0123174308BF0321CA1E1C
:10123000B2FA82F252091A4018BF0021002FEAD0F8
:10124000002A18BF6172A17A002908BF002805D0C2
:10125000012905D120B1002001E000BF0120A072CA
:10126000207B01280DD1208B013081B2B1F57A7F2E
:10127000208319D940468021FFF7FAFA207B00210C
:101280002183022810D1E08B013081B2B1F5FA7FC1
:10129000E08309D340468021FFF7EAFA5046042153
:1012A000FFF7E6FA0020E083E07A012827D15846CC
:1012B0004021FFF7D7FA10BB40F20040C4F2000013
:1012C0000168002221F001010160484680210025CB
:1012D000FFF7D6FA48464FF480710122FFF7D0FAA3
:1012E00048464FF400710022FFF7CAFA48464FF40F
:1012F00080610122FFF7C4FA2571C4F80D50E07A2D
:10130000012826D1A07B092823D140F20040C4F255
:1013100000000168002221F001010160484680219F
:101320000025FFF7ADFA48464FF480710122FFF720
:10133000A7FA48464FF400710022FFF7A1FA484689
:101340004FF480610122FFF79BFA25732571C4F8E1
:101350000D5001B0BDE8F08F70B540F200454FF67A
:101360001040C4F20005CFF6FF70295840F2700615
:1013700021F001012950C2F20006708BB18A0130C0
:1013800082B28A42708314D100244FF48170C4F277
:101390000204B081204680210022FFF771FA04F593
:1013A000806004210122FFF76BFA286820F0010019
:1013B0002860707B012809D1B17839B9708BB18B65
:1013C000884207D2002070830FE000BF012812D1AD
:1013D000708BB18B884298BF70BD00207083012054
:1013E000B081286840F0010028604FF0804001681B
:1013F00021F00101016070BDF0B581B040F20046FE
:10140000C4F20006306940F2700720F0010030613C
:10141000C2F20007B87B052840D0032822D002285A
:1014200050D1788A013081B2B1F5FA6F788249D310
:1014300041F20004C4F20204204680210022FFF79A
:101440001FFA20464FF4807101220124FFF718FA99
:101450000320B873306820F0010030607C8201B056
:10146000F0BD00BF788A013081B2B1F5FA6F7882A1
:1014700028D341F20004C4F2020420464FF4007164
:1014800000220025FFF7FCF920464FF4806101227D
:10149000FFF7F6F90420B8737D8279E0F88A41F20B
:1014A0000004013081B2C4F20204B1F57A7FF882FF
:1014B0000AD081B240F2DC52914210D080B2B0F535
:1014C000FA6F23D201B0F0BD204680210122FFF740
:1014D000D7F9F88A81B240F2DC529142EED120462F
:1014E0004FF480710122FFF7CBF920464FF40071D1
:1014F0000022FFF7C5F920464FF480610122FFF773
:10150000BFF9F88A80B2B0F5FA6FDBD320468021AC
:101510000022FFF7B5F9387907F12005013038715D
:10152000C2B21EA12846FEF72DFF97F8202043F2F5
:10153000004143F20440CFF6FE71CFF6FE702AB9A7
:1015400015E000BF225015F8012F82B163585B06E9
:10155000F8D463585B065CBF63585FEA4363F1D419
:1015600063585B06F2D5EDE76258520609D462581B
:10157000520606D4625852065CBF62585FEA426265
:10158000F2D52E2121500220F88100203874F882F3
:10159000306820F00100306001B0F0BD256400002B
:1015A00010B504460068D4E902C22369016921F438
:1015B000405111430161626943EA0C01E36911433F
:1015C000C268194349F20C639A431143C1604169EF
:1015D000A26921F4407141F20043114340F480625A
:1015E000C4F201039A42416102D1FFF7FBFA01E024
:1015F000FFF7E4FAE3694FF69C7C62681921C0F6B4
:10160000FF7CB3F5004F01FB00F01FD15100B0FB90
:10161000F1F048F21F51C5F2EB11A0FB01235A096A
:101620000CF1805302FB0300322303EBC000A0FB4C
:1016300001014FF4F87000EA111000EB0210C1F341
:10164000421108442168886010BD00BF9100B0FBC2
:10165000F1F048F21F51C5F2EB11A0FB01235A092A
:1016600002FB0C00322303EB0010A0FB0101F02071
:1016700000EA511000EB0210C1F343110844216845
:10168000886010BDFEE7000092B0FFF713F906ACCA
:10169000201D2C21FEF7FAFE022006900120099061
:1016A00010200A90002520460C95FFF7AFFA28B1CC
:1016B000EFF3108072B600BFFEE700BF0F20CDE948
:1016C000010501A80021CDE903550595FFF78AF929
:1016D00020B1EFF3108072B6FEE700BF43F6300989
:1016E0004FF0000AC4F20209CDF828A0CDE908AAFB
:1016F000CDE906AACDF804A0D9F8000041F2000B0C
:1017000040F00100C9F80000D9F80000C4F2020B53
:1017100000F0010001900198CDF804A0D9F8000074
:10172000ABF5805840F00200C9F80000D9F800007D
:1017300040F2004600F0020001900198CDF804A0AC
:10174000D9F80000802140F01000C9F80000D9F855
:101750000000002200F0100001900198CDF804A0D4
:10176000D9F80000C4F2000640F00800C9F80000F3
:10177000D9F80000802400F0080001900198CDF80D
:1017800004A0D9F8000040F00400C9F80000D9F81E
:10179000000000F00400019001984046FFF770F847
:1017A000ABF540652846042100220427FFF768F8BE
:1017B00058464FF4F0610022FFF762F806940120CA
:1017C00006ACCDE9070A40462146CDF824A0FEF735
:1017D00075FF0697012728462146CDE9077ACDF8FF
:1017E00024A0FEF76BFF4FF4F06006A981E88104A6
:1017F00058462146CDF824A0FEF760FF4FF4804004
:10180000CDE9060A58462146CDF820A0FEF756FF3E
:101810004FF40060ABF58065CDE9060A2846214605
:101820000897FEF74BFF4FF48050CDE9060A284693
:101830002146CDF820A0FEF741FF4FF4E070CDE93E
:10184000060AABF500602146CDF820A0FEF736FF72
:101850004FF40040CDE9060A40462146CDF820A0CD
:10186000FEF72CFF40F27004C2F2000406F580413E
:10187000204640F8281F4FF416510C22C0E9011AE7
:10188000C0E903AAC0E9052AC0F81CA0FFF784FB41
:1018900020B1EFF3108072B6FEE700BF44F20C40B7
:1018A000C4F2000040F2836140F8041C01684EF26B
:1018B000001841F00C0101600168CEF2000841F40B
:1018C000005101600168002241F020010160D8F858
:1018D0000400802140F04000C8F804005846FEF79C
:1018E000CFFF58464FF480710122FEF7C9FF5846DA
:1018F0004FF400710022FEF7C3FF58464FF4806199
:101900000122FEF7BDFFD9F81400072140F00100C5
:10191000C9F814004FF22800CFF6FE704BF8001003
:101920004FF22C00CFF6FE7040F2E7314BF800107A
:101930004FF20C00CFF6FE705BF8001040F200058D
:1019400041F001014BF800104FF00070C8F80000A2
:101950004FF20000CFF6FE705BF80010C24641F077
:1019600001014BF80010607BA17BC2F200054FF033
:101970000F0B4FF0005816E003210020D9F810207B
:1019800042F00202C9F8102040F2E732C6F828B04F
:10199000F262F26842F00102F260CAF80080326836
:1019A00042F0010232600229E77208BF002847D1E5
:1019B000E07800284FF000001DD1A978D9B9E17B6B
:1019C000C9B94F4641F20009C4F2020948464FF432
:1019D00000710122FEF754FF48464FF48061002257
:1019E000FEF74EFF484680210122B9460127FEF747
:1019F00047FF607BE773E97811BB217C01BBF8B935
:101A000041F20000C4F202004FF480710022FEF7A0
:101A100037FF2774D9F8100040F00200C9F8100011
:101A200040F2E730C6F828B0F062F06840F00100FC
:101A3000F060CAF80080306840F001003060607BE0
:101A4000A17B032908BF002896D0042908BF0028DD
:101A5000A9D1AA78002AA6D141F20000C4F202005E
:101A60004FF480710022FEF70BFF607B0521A1730C
:101A700084E70000000000000000010203040607E4
:101A8000080900000000010203040000B01A000869
:101A90000000002010000000E8010008C01A000843
:101AA00010000020D8060000080200080000000016
:101AB0000101010101000000100000000024F400F9
:040000050800018569
:00000001FF
